:020000040800F2
:1000000080190020450100088B260008DD24000827
:1000100089260008630E0008B52C000800000000C7
:100020000000000000000000000000008F26000813
:10003000BF0E0008000000008D2600089126000871
:100040005F0100085F0100085F0100085F01000810
:100050005F0100085F0100085F0100085F01000800
:100060005F0100085F0100085F0100085F010008F0
:100070005F0100085F010008650E0008710E0008AE
:100080005F0100085F0100085F0100085F010008D0
:100090005F0100085F0100085F0100085F010008C0
:1000A0005F0100085F0100085F0100085F010008B0
:1000B0005F0100085F0100085F0100085F010008A0
:1000C0005F0100085F0100085F0100085F01000890
:1000D0005F010008A12C00085F0100085F01000813
:1000E0005F0100085F0100085F0100085F01000870
:1000F0005F0100085F0100085F0100085F01000860
:100100005F0100085F0100085F0100085F0100084F
:10011000012800085F010008F52600085F010008BB
:100120005F0100085F0100087D0E0008890E0008CD
:10013000DFF80CD000F0E2FD004800473D3B00082E
:10014000801900200648804706480047FEE7FEE782
:10015000FEE7FEE7FEE7FEE7FEE7FEE7FEE7FEE777
:10016000F326000831010008202A04DB203A21FA96
:1001700002F00021704721FA02F3D040C2F12002C0
:100180009140084319467047A0F14101192900D850
:100190002030704740EA01039B0703D009E008C9FB
:1001A000121F08C0042AFAD203E011F8013B00F83C
:1001B000013B521EF9D27047D2B201E000F8012B88
:1001C000491EFBD270470022F6E710B513460A46D7
:1001D00004461946FFF7F0FF204610BD30B505462E
:1001E0002A460B4612F8010B13F8014B08B1A04246
:1001F000F8D01CB1002802D06D1CF1E7284630BDB4
:10020000CAB2401E10F8011F8A4202D00029F9D15B
:1002100000207047421C10F8011B0029FBD1801AF6
:10022000704710B5002200E0521C835C8C5CA34236
:1002300001D1002BF8D1D8B2E1B2401A10BD30B5CF
:1002400005460020034600E05B1C934205D2EC5CAF
:10025000C85C201A01D1002CF6D130BD0246C9B2CB
:1002600000E0401C0378002BFBD102E003788B42B6
:1002700003D0401E9042F9D2002070472DE9FF4F75
:10028000087883B09946FF2805D0491C2D2804D052
:100290000024002008E000200BE00124F9E700EB37
:1002A000800003EB4000491C0B78FF2BF7D104B111
:1002B000404200230293147819461D462D2C01D08C
:1002C0002B2C04D1521C2D2C13D000240294AA46AE
:1002D0001478FF2C0FD00A25A3FB057801FB0581BC
:1002E0004FF0000C03FB0C11521CE3194AEB010107
:1002F000EEE70124EAE7814453EA010002D019F550
:10030000C87F06DA03980021C0E9001107B0BDE8F4
:10031000F08F0025AE4E2F46DFF8B882184600F069
:10032000ADFCCDE90001B9F1000002DAC9F1000429
:1003300000E004460023A74A1AEB030B42EB045AE1
:1003400012E0E00707D02A4633463846414600F01F
:10035000B4FB074688462A4633461046194600F045
:10036000ACFB05460E466410002CEAD1DDE9000125
:10037000B9F1000F5A46534606DA00F010FC3A462F
:10038000434600F00CFC05E000F097FB3A4643467C
:1003900000F093FB029A0AB181F00041039AC2E98E
:1003A0000001B3E72DE9FF4F1F468DB0D7E90146A5
:1003B0004FF0FF382E2045464FF000090B90B969E9
:1003C0006D1C0E988847396A824688470028F6D106
:1003D000BAF1FF3F0AD024F4D064002E11DDBAF147
:1003E0002B0F08D0BAF12D0F0BD102E0404611B00F
:1003F0008DE744F48064B9696D1C0E988847824685
:10040000761E6946600501D52D2000E02B208DF871
:10041000000001F1010B0DF1200809E0B9696D1C24
:100420000E98884782460F9844F40074761E056043
:10043000002E02DDBAF1300FF0D00B998A453ED183
:1004400044F0800406E00F99681CA9F1010944F406
:1004500000740860B9696D1C761E0E988847824644
:100460003028F0D02BE00B998A4505D1200603D423
:1004700044F08004761E18E0504602F07DFD08B37B
:100480000DF11301761E44F400748B4508D2AAF1D5
:1004900030000BF8010B200607D5A9F1010003E09D
:1004A000200602D409F101008146A00502D50F996A
:1004B000681C0860B9696D1C0E9888478246002E3A
:1004C000D1DC53E0002E51DDBAF1650F02D0BAF154
:1004D000450F4BD1A00549D5B9696D1C24F4407472
:1004E000761E0E9888478246002E0CDD2B2804D0FD
:1004F000BAF12D0F07D144F48074B9696D1C0E98C0
:1005000088478246761EE00501D52D2100E02B218B
:1005100008F8011BCDF82C8021E00DF12901761E91
:1005200044F4007488450CD2AAF1300010F0FF00AA
:1005300088F8000002D10B99884509D908F1010813
:1005400006E0E00501D5244801E042F20F70814643
:10055000B9696D1C0E98884782460F980560002E79
:1005600004DD504602F008FD0028D6D1F9690E9846
:100570008847FF208BF8000088F8000000200690D4
:1005800007904B466A4608A906A8FFF777FEA00524
:1005900002D46FF001002AE714F0240F0AD0E0071C
:1005A00014D1DDE906123868031D3B600068C0E91C
:1005B00000120BE0DDE9060100F084FB0146E007D4
:1005C00004D13868021D3A600068016028460EE7D1
:1005D000000014400000F03FF1D8FFFF70B5064660
:1005E00002F09EFB046805460A220021304600F016
:1005F000CFF92C6070BD2DE9FE4F804681EA0300E3
:10060000C00F0C46009021F0004123F00045B8EBEC
:100610000200A94105D24046214690461C460B46A1
:10062000024623F00040104347D0270DC7F30A00CD
:10063000C3F30A510290401A019040286BDAC3F3C9
:10064000130040F4801B0098924620B10023D2EBA7
:10065000030A63EB0B0B01985946C0F14002504668
:1006600000F007F906460D4650465946019A00F03B
:100670000FF910EB08006141002487EA115284EA67
:10068000E7731A4340D0009A62B3019A012A4FEAF5
:10069000075215DC001B61EB02014FF0004202EA39
:1006A0000752CDE90042001C41F5801132462B462D
:1006B00000F0B5F903B0BDE8F08F40462146F9E7F8
:1006C000001B61EB0201001C41F5801300185B4127
:1006D0002018A2F5001747EB030140EAD570B619C0
:1006E0006D4111E06D084FEA360645EAC0754FEAE4
:1006F0000752001B61EB0201001C41F58011490803
:100700004FEA30000019514132462B4603B0BDE894
:10071000F04F00F075B90098012240000023D0EBA3
:10072000020263EBE073009821464FEAE074B8EBF5
:10073000000061EB0401E9E783F000435BE781F02F
:10074000004158E770B5C1F30A5201F0004500249A
:10075000C1F3130140F2FF3341F480119A4201DAF0
:10076000002070BD40F233439A42A2F2334203DCD0
:100770005242FFF7F9FC00E090402C43F1D0404298
:1007800070BD000030B5041E71F1000404DB4FF0B1
:100790000044404264EB0101141E73F1000405DBC8
:1007A0001C464FF00043524263EB04038B4208BFE8
:1007B000824230BD30B5041E71F1000404DB4FF0FD
:1007C0000044404264EB0101141E73F1000405DB98
:1007D0001C464FF00043524263EB0403994208BFAA
:1007E000904230BD30B50B46014600202022012446
:1007F00009E021FA02F59D4205D303FA02F5491BEF
:1008000004FA02F52844151EA2F10102F1DC30BD04
:100810002DE9F05F0546002092469B468846064635
:10082000814640241BE02846414647462246FFF7C2
:100830009BFC53465A46C01A914110D311461846A4
:10084000224600F016F82D1A67EB01084F462246A3
:100850000120002100F00DF817EB00094E41201E89
:10086000A4F10104DFDC484631462A464346BDE890
:10087000F09F202A04DB203A00FA02F100207047A2
:100880009140C2F1200320FA03F3194390407047CE
:10089000202A06DBCB17203A41FA02F043EAE07344
:1008A00006E041FA02F3D040C2F120029140084331
:1008B00019467047426842B1016811F8013B23B103
:1008C000521EC0E90012184670470121C160881EFF
:1008D000704742685AB1C368016843B983688B4264
:1008E00005D0491E521CC0E90012002070474FF08D
:1008F000FF3070470FB4002300B589B00CA90091F8
:100900000B996FF00042CB601E4B06931E4B079372
:100910000423CDE901321D4A089202466B460020AD
:10092000FFF740FD09B05DF814FB70B586B00646D0
:100930004FF0FF300091CDE90101002015460C4633
:1009400004903246694604A8FFF7D4FF0246049893
:10095000211825B108B1084600E020462860049817
:1009600000280DD0002A02DD0098884208D0081B1C
:100970000094CDE901043246694604A8FFF7BAFFA6
:1009800006B070BDB5080008D3080008290D00089E
:100990002DE9F04791460F4680460446002614F89C
:1009A000015B2DB100F0BCF90068405DC007F6D1D5
:1009B0002B2D02D02D2D18D0641E4A4639462046D4
:1009C00000F0BBF927B13968A14201D1C7F8008016
:1009D00071054FF002040BD54042002803DD02F000
:1009E0009FF90460A007BDE8F08746F48066E4E75D
:1009F0000028F8DA02F094F904606FF00040F2E7A2
:100A000010B5141E73F1000408DA401C41F1000116
:100A100092185B411A4301D120F0010010BD2DE96D
:100A2000F04D92469B4611B1B1FA81F202E0B0FA64
:100A300080F220329046FFF71CFF04460F4640EA42
:100A40000A0041EA0B0153465A46084313D01146A7
:100A500053EA010019D0C8F140025046FFF784FB69
:100A600005460E46504659464246FFF702FF0843E8
:100A700005D0012004E020463946BDE8F08D002075
:100A8000054346EAE0762C4337430A986305E40AB7
:100A9000A0EB08000022FD0A44EA47540A3002D5C0
:100AA00000200146E9E7010510196941DDE9084523
:100AB00000196941BDE8F04DA2E72DE9FE4F81EA3A
:100AC000030404F0004421F0004100944FF0000BB7
:100AD00023F0004350EA01045ED052EA03045BD0E5
:100AE000C3F30A54C1F30A552C44A4F2F33401941D
:100AF000A0FB0254C1F3130141F48011C3F31303AB
:100B000043F4801301FB024400FB034E840A970A5E
:100B100044EA815447EA8357A4FB076802958D0A8B
:100B200005FB07854FEA932C04FB0C542705029D17
:100B30004FEA065847EA1637B5EB08056EEB070C87
:100B4000870E920E47EA811742EA8312A7FB020141
:100B5000B6EB0B0164EB00042B0D43EA0C335E187B
:100B600044EB1C50DA465146E7FB0201C5F313047F
:100B70004FEA0B3343EA14534FEA0432019C43EA31
:100B80000603A4F10C040294009CCDE900B4FFF725
:100B900046FF03B0BDE8F08F00200146F9E72DE9DC
:100BA000F04D81EA030404F0004B21F000451446A7
:100BB0004FF0000A23F0004150EA050220D054EA29
:100BC00001021DD0C5F30A570246C5F31303C1F352
:100BD0001300C1F30A5640F4801543F48013A7EBC9
:100BE0000608101BD64608F2FD3873EB050002D349
:100BF00008F1010801E092185B41B8F1000F03DA37
:100C000000200146BDE8F08D00204FF4801106461B
:100C100084460EE0171B73EB050705D3121B63EB2D
:100C2000050306434CEA010C49084FEA30009218CC
:100C30005B4150EA0107EDD152EA030012D082EA8B
:100C4000040083EA0501084305D0101BAB4106D21E
:100C50000122002306E000224FF0004302E06FF083
:100C6000010253101AEB06004CEB085110EB0A007E
:100C700041EB0B01BDE8F04DFFF7C2BE0EB540F2EF
:100C8000334202920022CDE900221346FFF7C7FE4D
:100C900003B000BDC1F30A52C1F3130140F2FF33A8
:100CA00041F480119A4202DA00200146704740F276
:100CB00033439A42A2F2334202DC5242FFF754BA63
:100CC000FFF7D7BD01F0004330B421F0004150EAF6
:100CD000010206D00A0DA2F56072C1F31301002AC9
:100CE00002DC30BC00207047440F44EAC104C1005C
:100CF000E01830BC00EBC25000F06EB8064C074D57
:100D000006E0E06840F0010394E8070098471034DB
:100D1000AC42F6D3FFF710FAC0530008E0530008C6
:100D2000004870479C51000810B50446FFF7F8FFD3
:100D30000068005D00F0010010BD2DE9F05F824603
:100D40000078002715468B460AF10104B946302881
:100D500001D09DB113E014F8010B0127782803D0CE
:100D6000582801D045B10AE00DB1102D07D1002758
:100D7000102514F8010B02E0082500E00A250026E2
:100D8000B0460EE005FB080005FB06F1012701EB6C
:100D900010461FFA80F8B6F5803F00D3B94614F824
:100DA000010B294600F04FF80028EBDABBF1000FE9
:100DB00005D00FB1641E00E05446CBF80040B9F1F5
:100DC000000F06D001F0ACFF02210160C81EBDE893
:100DD000F09F48EA0640FAE70029A8BF7047401C88
:100DE000490008BF20F00100704710B4B0FA80FC41
:100DF00000FA0CF050EA010404BF10BC704749B17E
:100E0000CCF1200421FA04F411FA0CF118BF0121ED
:100E100021430843A3EB0C01CB1D4FEA00614FEACD
:100E2000102042BF002010BC704700EBC35010449C
:100E30000029A4BF10BC7047401C490008BF20F027
:100E4000010010BC70473A2800D2303820F0200250
:100E5000412A01D3A2F13700884201D34FF0FF307D
:100E60007047FEE7014800F0E9B80000F8040020F0
:100E7000014800F0E3B800003C050020014800F004
:100E8000DDB8000070040020014800F0D7B8000071
:100E9000B404002030B590F840500124AC40C56B3C
:100EA0006C60046863604368102B036803D099602A
:100EB0000068C26030BD9A600068C16030BD704794
:100EC00072B6FEE710B590F821100022022905D075
:100ED0000421816380F82020012010BD01680B6887
:100EE00023F00E030B6001680B6823F001030B6015
:100EF00090F84030C46B012101FA03F3636080F87D
:100F0000211080F82020104610BD00002DE9F05F70
:100F100090F821100024022903D0042181630124C8
:100F200085E001680A6822F00E020A6001680A681A
:100F300022F001020A603F4E3E4FB215DFF8F4C0C6
:100F4000DFF8F090DFF8ECA0DFF8E8B0DFF8E4E0DD
:100F50000168783F13011502ACF1640CA9F1500946
:100F6000AAF13C0AABF1280BAEF1140E4FF4801835
:100F7000B14227D9B9420ED0614512D049451DD0A2
:100F8000514518D0594518D0714501D1424615E058
:100F9000294EB14201D1012210E0274E1436B14250
:100FA00001D110220AE0244E2836B14206D0224A4E
:100FB0003C32914201D11A4600E02A461E49091FDF
:100FC0000A602BE0B94213D0614517D0494522D0C1
:100FD00051451DD059451DD0714501D142461AE0F9
:100FE000B14202D14FF0807215E0134EB14201D1EF
:100FF000012210E0104E1436B14201D110220AE055
:101000000D4E2836B14206D00B4A3C32914201D1F6
:101010001A4600E02A46074980394A60012180F8D3
:101020002110002180F82010416B01B18847204633
:10103000BDE8F09F80000240080402402DE9F05F07
:10104000C16B0A6801680B68046C4FF0040808FA69
:1010500004F8844D844E854FDFF814C2DFF81492F3
:10106000DFF814A2DFF814B2DFF814E218EA020F76
:1010700065D05FEA437862D50A68920603D40A68AD
:1010800022F004020A60DFF8F0814FF48062016808
:1010900008F1140813011402414524D9A9420DD0C6
:1010A000B1420FD0B9421AD0614515D0494515D08B
:1010B000514501D1120312E0594501D104220EE03D
:1010C000714501D140220AE06D4D1435A94206D088
:1010D0006B4A2832914201D11A4600E02246674904
:1010E000091F0A6029E0A94213D0B14215D0B942C4
:1010F00020D061451BD049451BD0514502D14FF44A
:10110000800217E0414502D14FF0806212E059455C
:1011100001D104220EE0714501D140220AE0584D70
:101120001435A94206D0564A2832914201D11A46B6
:1011300000E022464B4908394A60C16A71E04FF02D
:10114000020808FA04F818EA020F70D05FEA837800
:101150006DD50A68920606D40A6822F00A020A606F
:10116000012180F82110DFF810814FF4007201682E
:1011700008F1140813011402414524D9A9420DD0E5
:10118000B1420FD0B9421AD0614515D0494515D0AA
:10119000514501D1120312E0594501D102220EE05E
:1011A000714501D120220AE0354D1435A94206D0FF
:1011B000334A2832914201D11A4600E022462F4993
:1011C000091F0A6029E0A94213D0B14215D0B942E3
:1011D00020D061451BD049451BD0514502D14FF469
:1011E000001217E0414502D14FF0007212E059455C
:1011F00001D102220EE0714501D120220AE0204DEA
:101200001435A94206D01E4A2832914201D11A460D
:1012100000E02246134908394A60002180F8201076
:10122000816A00291CD0BDE8F05F0847FFE7082568
:10123000A540154214D01A0712D50A6822F00E02F2
:101240000A6090F84020C36B012101FA02F25A6053
:10125000816380F82110002180F82010016BE0E705
:10126000BDE8F09F080002401C0002403000024030
:1012700044000240580002406C0002400804024052
:101280001C04024030B560B11A4B026814219A4226
:1012900009D2194B1344B3FBF1F1890001641749DA
:1012A0000AE0012030BD134B5B421344B3FBF1F164
:1012B000890001640F490839C163022180F82110B7
:1012C000136843F6F0718B43F0E901142143D0E930
:1012D00002452C4321430469214344692143846925
:1012E00021431943116000214163012242770177B4
:1012F000084630BD08040240F8FFFDBF0000024070
:1013000070B5044690F82000002501280CD001207B
:1013100084F8200094F821600020012E06D084F883
:1013200020000225284670BD022070BD022684F8E8
:101330002160A0632068066826F00106066020464A
:10134000FFF7A8FDE06A00282068016802D041F09C
:101350000E0106E021F0040101602068016841F0FF
:101360000A0101602068016841F001010160D9E7CC
:1013700070B5044600F01CF90546601C02D0044814
:101380000078044400F014F9401BA042FAD370BD69
:10139000780000202DE9F84FDFF8C8910024A9F16A
:1013A000040B23460F2709F1040AABF1040ED1E028
:1013B0000125A54006EA0502AA4276D1DFF8A8C1B8
:1013C0004E68A6EB0C0866452BD00DDC032E34D0FE
:1013D00005DC36B3012E19D0022E2FD11BE0112EC1
:1013E00016D0122E2AD119E0B8F5881F19D006DCC4
:1013F000B8F5803F15D0B8F5801F1FD111E0B8F5C2
:10140000001F0ED0B8F5041F18D10AE0CB6815E014
:10141000CB681B1D12E0CB6808330FE0CB680C33A0
:101420000CE08B682BB1012B4FF0080303D0456112
:1014300004E0042302E0056100E00023FF2A01D854
:10144000064601E000F104064FEA840501D9A5F142
:101450002005D6F8008007FA05FC28EA0C0803FAF4
:1014600005F548EA0508C6F800804D68ED0070D51E
:101470003E4DAE6946F00106AE61AD6924F003064B
:1014800005F0010500953A4D06EB050CDCF8085017
:10149000A607360F07FA06F825EA0805DFF8D48014
:1014A000404503D14FF0000825E052E0DFF8C88046
:1014B000404502D14FF001081DE0DFF8C0804045F3
:1014C00002D14FF0020816E0DFF8B480404502D1A7
:1014D0004FF003080FE0DFF8AC80404502D14FF039
:1014E000040808E0DFF8A080404502D14FF005086D
:1014F00001E04FF0060808FA06F848EA0508CCF8BB
:1015000008804D68D9F80060ED024D4601D51643BC
:1015100000E096432E604D68DAF80060AD02554653
:1015200001D5164300E096432E604D68DBF800605D
:10153000AD035D4601D5164300E096432E604D682D
:10154000DEF80060ED03754601D5164300E09643D2
:101550002E60641C0A681646E2407FF429AFBDE89D
:10156000F88F000008040140000011100010024034
:101570000000014000080140000C01400010014043
:101580000014014000180140001C01408068084020
:1015900000D001207047C26821EA02030A4043EAF2
:1015A0000241016170470AB1016170470904FBE71C
:1015B0000148806870470000780000200248816878
:1015C000027811448160704778000020074810B508
:1015D000016841F010010160032000F075F80F2050
:1015E00000F006F800F024F8002010BD00200240B2
:1015F00070B50D4D04464FF47A712878B1FBF0F0C8
:101600000A490968B1FBF0F000F0DCFA48B9102C87
:1016100007D200222146501E00F036F800206C60F0
:1016200070BD012070BD0000780000208400002003
:101630000C4808B5816941F001018161816901F0BF
:1016400001010091C16941F08051C161C06900F0A0
:10165000805000900448416821F0E06141F0007141
:10166000416008BD0010024000000140002809DB75
:1016700000F01F02012191404009800000F1E020AC
:10168000C0F8001170470000F0B40E4B1B680C4608
:10169000C3F30223C3F10705042D00D90425191D46
:1016A000072901D2002300E0DB1E012606FA05F11E
:1016B000491E214099409E40761E16403143F0BCA1
:1016C00001F01EBB0CED00E0064900F007020868BF
:1016D0004FF6FF03184040EA0220034A1043086017
:1016E000704700000CED00E00000FA052DE9F0471E
:1016F0000F46050061D0434E306800F00700B84245
:1017000009D2306820F0070038433060306800F0BC
:101710000700B84251D128683B4C810712D54007D9
:1017200003D5606840F4E06060602878000703D566
:10173000606840F4605060606068A96820F0F00064
:10174000084360602878C00728D06868012810D056
:101750002168022810D0890700292EDA616821F05B
:10176000030101436160FFF723FF804641F288399E
:101770000DE021688903EFE78901EDE7FFF718FF26
:10178000A0EB0801494502D90320BDE8F087606855
:10179000696800F00C00B0EB810FEFD1306800F009
:1017A0000700B8420BD9306820F00700384330609A
:1017B000306800F00700B84201D00120E5E7287842
:1017C000400705D56068E96820F4E0600843606080
:1017D0002878000706D56068296920F4605040EA3F
:1017E000C100606000F038F86168084AC1F3031175
:1017F000515CC8400649086006480068FFF7F8FEDB
:101800000020C2E700200240001002400051000802
:10181000840000207C0000200448054900684968D5
:10182000044AC1F30221515CC84070478400002083
:10183000001002401051000804480549006849683A
:10184000044AC1F3C221515CC840704784000020A3
:1018500000100240105100080E4A51680E4801F075
:101860000C03042B11D0082B0FD10C48C1F3834378
:10187000C903C05C0AD55168084AC1F34041921EB1
:10188000515C054A5043B0FBF1F0704704494843AE
:10189000704700000010024000127A00F05000086B
:1018A00000093D002DE9F84F040070D02078C04DAC
:1018B000C00749D06868C0F38100012807D0686874
:1018C000C0F38100022809D16868C00306D52868E2
:1018D000800339D560680028E7D035E06068B0F54E
:1018E000803F0BD010B1B0F5A02F11D0286820F4A4
:1018F00080302860286820F4802002E0286840F4C6
:1019000080302860606890B1FFF752FE06460AE01A
:10191000286840F480202860F0E700BFFFF748FE09
:10192000801B642873D828688003F7D50CE0FFF784
:101930003FFE064605E000BFFFF73AFE801B642825
:10194000F0D828688003F7D420789A4E80074FF0AB
:1019500001094FF0000839D5686810F00C0F07D066
:101960006868C0F38100022809D16868C00306D402
:101970002868800714D52069012808D110E0206963
:10198000B0B1C6F80090FFF713FE074605E00AE184
:10199000FFF70EFEC01B0228C4D828688007F7D5C1
:1019A0002868616920F0F80040EAC10028600DE075
:1019B000C6F80080FFF7FCFD074604E0FFF7F8FDDE
:1019C000C01B022823D828688007F7D42078000796
:1019D0002CD57948A169D9B1C0F80090FFF7E8FD8E
:1019E000074604E0FFF7E4FDC01B02280FD8686A31
:1019F0008007F7D571484FF4FA510068B0FBF1F059
:101A0000009000BF0098411E0091FAD20EE080E0E5
:101A1000C0F80080FFF7CCFD074604E0FFF7C8FDE3
:101A2000C01B022875D8686A8007F7D42078400761
:101A300060D5E8690027C00008D4E86940F080500C
:101A4000E861E869012700F0805000905C48016877
:101A5000C90513D40168834641F480710160FFF722
:101A6000A7FD824606E000BFFFF7A2FDA0EB0A003B
:101A700064284ED8DBF80000C005F5D5E0680128E1
:101A80000AD008B1052813D0286A20F00100286286
:101A9000286A20F0040002E0286A40F00100286271
:101AA000E06841F2883B98B1FFF782FD82460BE087
:101AB000286A40F004002862EEE700BFFFF778FDD7
:101AC000A0EB0A0159455AD8286A8007F6D50CE0E0
:101AD000FFF76EFD824605E0FFF76AFDA0EB0A0105
:101AE00059454CD8286A8007F6D41FB1E86920F020
:101AF0008050E861E06988B36968C1F38101022917
:101B000044D00228C6F8608004D0FFF751FD044697
:101B100038E034E0FFF74CFD074604E0FFF748FDEE
:101B2000C01B02282BD828688001F7D4206AB0F5A2
:101B3000803F05D16868A16820F4003008436860E0
:101B4000D4E908010843696821F474110843686006
:101B5000C6F86090FFF72CFD044606E025E000BFC4
:101B6000FFF726FD001B022809D828688001F7D559
:101B70001BE000BFFFF71CFD001B022802D9032059
:101B8000BDE8F88F28688001F4D40EE00128F7D072
:101B90006868226A00F48031914204D1616A00F4DD
:101BA0007010884201D00120EAE70020E8E7000039
:101BB00000100240000042428004424284000020A3
:101BC0000070004010B5401EB0F1807F01D30120AD
:101BD00010BD4FF0E02460610F21601701F090F814
:101BE0000020A06107202061002010BD70477047D1
:101BF00070B590F83C20012A2CD0012480F83C409C
:101C0000022280F83D2003685A689D6822F0700621
:101C10000A6832435A60104B02689A420ED00F4B4A
:101C20009A420BD0B2F1804F08D00D4B9A4205D0AA
:101C30000C4B9A4202D00C4B9A4204D1496825F0D1
:101C400080031943916080F83D40002180F83C10EA
:101C5000084670BD022070BD002C014000340140D8
:101C60000004004000080040000C004010B50400D3
:101C700003D094F83D0010B107E0012010BD002012
:101C800084F83C00204600F01FF8022084F83D0054
:101C9000211D206800F034FD012084F8460084F8FE
:101CA0003E0084F83F0084F8400084F8410084F846
:101CB000420084F8430084F8440084F8450084F826
:101CC0003D00002010BD000008B500680B498842A7
:101CD00012D10B48C16941F01001C161C0690022F5
:101CE00000F01000009011463620FFF7CDFCBDE853
:101CF00008403620FFF7BABC08BD000000100040C5
:101D00000010024090F83D10012901D001207047D9
:101D1000022180F83D100168CA6842F00102CA60E1
:101D200000680E4988420ED00D4988420BD0B0F1B0
:101D3000804F08D00B49884205D00B49884202D019
:101D40000A49884204D1816801F00701062903D0BD
:101D5000016841F00101016000207047002C014042
:101D6000003401400004004000080040000C004026
:101D700070472DE9F04104460068C66805694FF0D8
:101D80000007A90713D5B10711D5F91E016101207C
:101D90002077206880698007204602D0FFF7E8FF9F
:101DA00004E000F07EF8204600F07CF82777680712
:101DB00016D5700714D521686FF004000861022061
:101DC00020772068806910F4407F204602D0FFF71A
:101DD000CFFF04E000F065F8204600F063F82777B5
:101DE000280715D5300713D521686FF00800086162
:101DF000042020772068C0698007204602D0FFF7C2
:101E0000B7FF04E000F04DF8204600F04BF82777CC
:101E1000E80616D5F00614D521686FF010000861A9
:101E2000082020772068C06910F4407F204602D047
:101E3000FFF79EFF04E000F034F8204600F032F88F
:101E40002777E80708D0F00706D021686FF0010077
:101E50000861204600F028F8280608D5300606D587
:101E600021686FF0800008612046FFF7BFFE68061A
:101E700008D5700606D521686FF04000086120463D
:101E800000F01EF8A8060AD5B00608D521686FF044
:101E9000200008612046BDE8F041FFF7A8BEBDE87C
:101EA000F0817047704700000349884203D103481E
:101EB0000168491C01607047980300206C000020F5
:101EC0007047704710B504460068406994F84110A7
:101ED000C0F3C010212911D180B12068143050E81E
:101EE000001F21F0800140E80012002AF5D1A06B0C
:101EF00008B1FEF7E7FF204600F058FD2068406972
:101F000094F84210C0F38010222911D180B12068CA
:101F1000143050E8001F21F0400140E80012002A70
:101F2000F5D1E06B08B1FEF7CDFF204600F017FDBC
:101F3000002010BD70470000F8B50168044608682D
:101F4000CA684B6910F00F0F4FF0000559D003F02D
:101F5000010602F49077374365D0C10705D0D1055B
:101F600003D5616C41F001016164410705D5D907D2
:101F700003D0616C41F002016164810705D5D90786
:101F800003D0616C41F004016164010707D502F0E0
:101F90002001314303D0616C41F008016164616C40
:101FA00000293AD0800604D5900602D5204600F0DC
:101FB0000BFD20684069616CC0F38010090700D4F4
:101FC00060B3204600F0CBFC20684069400621D574
:101FD0002068143050E8001F21F0400140E8001252
:101FE000002AF5D1E06BA8B16D494163E06BFEF7C3
:101FF0008DFF002811D0E06B416B01B0BDE8F040CF
:10200000084783060FD593060DD52046BDE8F84056
:1020100000F0DABC2046FFF78DFFF8BD2046FFF741
:1020200089FF6564F8BD266B2023012E7CD1C6068E
:102030007AD5D60678D508684868009048694FF088
:102040000206400640D5E16B086840680004000CB9
:10205000E8D0A28D8242E5D9E085886920282DD07C
:1020600020680C3050E8001F21F4807140E8001215
:10207000002AF5D12068143050E8001F21F001013A
:1020800040E80012002AF5D12068143050E8001F03
:1020900021F0400140E80012002AF5D184F84230D6
:1020A000256320680C3050E8001F21F0100140E843
:1020B0000012002AF5D1E06BFEF704FF6663A08DE5
:1020C000E18D401A81B22AE0A08DE18D401A81B2E3
:1020D000E08D0028A6D00029A4D022680C3252E856
:1020E000000F20F4907042E80007002FF5D120681F
:1020F000143050E8002F22F0010240E80027002FA2
:10210000F5D184F84230256320680C3050E8002F68
:1021100022F0100240E80023002BF5D16663204630
:10212000FFF7CFFEF8BDFFE705062BD5150629D52D
:1021300094F841002128F5D1A068B0F5805F01D165
:102140002069B0B1206A411C216221680078486092
:10215000E08C401E0004000CE084E3D12068C168DC
:1021600021F08001C1602068C16841F04001C16078
:10217000D8E7206A0088C0F308004860206A801C05
:102180002062E5E74006CDD55006CBD5CA6820468B
:1021900022F04002CA6084F8413000F09DF9C1E7A6
:1021A0001528000870B5040004D094F841000025FB
:1021B00010B106E0012070BD84F84050204600F0C8
:1021C00023F8242084F841002068C16821F40051DC
:1021D000C160204600F05AFC2068016921F490415A
:1021E00001612068416921F02A0141612068C168CC
:1021F00041F40051C1606564202084F8410084F8F6
:1022000042006563002070BD2DE9F04385B00025D4
:102210000095019502950395044603685948DFF837
:1022200060C107150221032280264FF01008634584
:102230004CD1C36943F40023C361C36903F4002391
:102240000493836943F0100383618069CDE90071D1
:1022500000F01000CDE903204B4F69463846FFF7E8
:1022600099F83001CDE90005694638460295FFF737
:1022700091F8474F4548C7E90005C7E902563D6157
:102280007D61BD613846FD61FEF7FCFF08B1FEF7D8
:1022900017FEE7637C623E4F3C4844372830C7E96D
:1022A00002563D617D61BD61FD61C7E900083846A8
:1022B000FEF7E8FF08B1FEF703FEA7630022114610
:1022C00034207C62FFF7E0F9342053E0DFF8C4C02B
:1022D000634551D1836943F480438361836903F487
:1022E00080430493836943F0040383618069DFF8CA
:1022F000A89000F0040004904FF40070CDE90001B4
:10230000039269464846FFF745F8CDE900756946EE
:1023100048460295FFF73EF81D4F20488837C7E929
:1023200002563D617D61BD61FD61C7E90008384627
:10233000FEF7A8FF08B1FEF7C3FDA7637C62144F48
:102340001648CC371430C7E90005C7E902562020EB
:102350003D61C7E905503846FD61FEF793FF08B1BE
:10236000FEF7AEFDE7630022114625207C62FFF7F1
:102370008BF92520FFF77AF905B0BDE8F08300005E
:10238000004C0040001002400010014030040240A8
:102390007004002000380140000801404400024061
:1023A00090F84230202B01D00220704721B11AB1A1
:1023B0000023036300F0C6BB0120704770477047DD
:1023C0002DE9F843044690F84100984616460D461C
:1023D000202802D00220BDE8F88385B17EB100201C
:1023E0006064212084F84100FFF7E2F8A68481466A
:1023F000E684A0682027B0F5805F02D003E00120CA
:10240000E9E7206910B12E4600250EE000260CE019
:102410008021204600F0DEFBA8B9C6B116F8010BFA
:1024200021684860E08C401EE084E08C4B464FF011
:102430000002CDF800800028EAD14FF0400120468C
:1024400000F0C8FB40B184F841700320C3E735F8C1
:10245000020BC0F30800E3E784F841700020BAE7FC
:1024600070B5044690F84100202801D0022070BDCC
:1024700049B342B32162A284E28400206064212334
:1024800084F84130A56B114BAB62A56B104BEB622E
:10249000A56B104B2B63A36B5863256813462A1D4D
:1024A000A06BFEF72DFF21686FF0400008602068E8
:1024B000143050E8001F41F0800140E80012002A6B
:1024C000F5D1002070BD012070BD00001329000867
:1024D000552900082528000870477047FEE70000CE
:1024E000194808B5416941F001014161416901F0B4
:1024F00001010091416941F00201416140690022FE
:1025000000F00200009011460E20FFF7BDF80E20EB
:10251000FFF7ACF8002211460F20FFF7B5F80F20A7
:10252000FFF7A4F8002211463A20FFF7ADF83A2051
:10253000FFF79CF8002211463B20FFF7A5F8BDE805
:1025400008403B20FFF792B80010024030B585B03C
:1025500000241C480094019402940394816941F082
:1025600020018161816901F020010491816941F0BC
:1025700010018161816901F010010491816941F0CC
:10258000040181618069104D00F004000490012273
:1025900070212846FFF707F80E20CDE900046946B0
:1025A0000A480294FEF7F6FE702000900120CDE963
:1025B00001040220039069462846FEF7EBFE05B0B1
:1025C00030BD000000100240000801400010014032
:1025D0001CB500240F4800940D490194016041F698
:1025E0001F41C0E901140921C16080218161FFF709
:1025F0003DFB08B1FEF764FC009469460548019470
:10260000FFF7F6FA002801D0FEF75AFC1CBD0000C7
:1026100000100040980300200C4810B50A490160E2
:102620004FF4E1314160002181600C22C160C0E9BA
:1026300004128161C161FFF7B5FD002803D0BDE838
:102640001040FEF73DBC10BD004C0040E0030020F0
:102650000C4810B50A4901604FF4E1314160002196
:1026600081600C22C160C0E904128161C161FFF781
:1026700099FD002803D0BDE81040FEF721BC10BD35
:102680000038014028040020FEE7FEE7704770474D
:10269000FEF794BF30B58FB028216846FDF793FD53
:1026A00014210AA8FDF78FFD01210804CDE90010CF
:1026B0000024029402250491CDE907504FF4E01064
:1026C00009906846FFF7EEF808B172B6FEE70F20F2
:1026D000CDE90A054FF48060CDE90C4002210AA83B
:1026E0000E94FFF703F8002801D072B6FEE70FB092
:1026F00030BD70470148FFF73CBB00009803002045
:10270000F0B50268204C214D214E224F224B4FF054
:10271000804CA04209D0984207D0604505D0A8421D
:1027200003D0B04201D0B84204D122F0700E4A6802
:1027300042EA0E02A04209D0984207D0604505D077
:10274000A84203D0B04201D0B84203D122F4407570
:10275000CA682A434D6922F080022A4302608A68CF
:10276000C2620A688262A04201D0984201D109691E
:102770000163012141610169C90703D0016921F0A9
:1027800001010161F0BD0000002C01400004004087
:1027900000080040000C004000340140134810B510
:1027A00000680168C943C9061ED46FF010010160BA
:1027B0000E48FFF787FB0E48006840680D4940420D
:1027C000C4B20120087022460B490C48FDF7E2FC18
:1027D00021460A4801F0ACFFBDE810404FF480727A
:1027E00005490248FFF7DCBD10BD0000E0030020F2
:1027F00070040020000000209801002098020020B2
:1028000010B50348FFF798FBBDE81040FFF7C6BFBF
:10281000E003002010B5406A0021C185C184FFF7A4
:1028200089FB10BD70B5446A2068406994F8411076
:10283000C0F3C0100025212904D118B1E584204639
:1028400000F0B4F82068406994F84210C0F380109A
:10285000222904D118B1E585204600F080F8606C8B
:1028600040F0100060642046FFF764FB70BD10B5B7
:102870000146406A096809684FF0000289062ED4B3
:10288000C28501680C3151E8003F23F4807341E8B0
:102890000034002CF5D10168143151E8003F23F0D9
:1028A000010341E80034002CF5D10168143151E8EE
:1028B000003F23F0400341E80034002CF5D12021F3
:1028C00080F84210016B012909D101680C3151E8EF
:1028D000003F23F0100341E80034002CF5D142639F
:1028E000016B012902D0FFF769FD10BD818DFFF753
:1028F000E8FA10BD10B5406A01214163016B01295E
:1029000002D0FFF75CFD10BD818D4908FFF7D9FAB1
:1029100010BD10B50146406A09680968890616D4D9
:102920000021C1840168143151E8002F22F0800297
:1029300041E80023002BF5D101680C3151E8002F4C
:1029400042F0400241E80023002BF5D110BDFFF713
:10295000C3FD10BD10B5406AFFF7BFFD10BD016893
:102960000C3151E8002F22F4907241E80023002B33
:10297000F5D10168143151E8002F22F0010241E83D
:102980000023002BF5D1016B012909D101680C311D
:1029900051E8002F22F0100241E80023002BF5D16E
:1029A000202180F8421000210163704701680C313A
:1029B00051E8002F22F0C00241E80023002BF5D19E
:1029C000202180F84110704708B590F84210222964
:1029D00001D0022008BD82684FF480539A4201D191
:1029E000016921B1816A9A421BD04AB10AE00268AA
:1029F000816A5268C2F308020A80816A891C08E071
:102A0000026972B10268526802F07F020A70816A3C
:102A1000491C8162C18D491E0904090CC18503D07E
:102A20001BE002685268F1E70168CA6822F02002E0
:102A3000CA600168CA6822F48072CA6001684A6983
:102A400022F001024A61202180F8421000214163F6
:102A5000026B012A03D0FFF7B1FC002008BD01631F
:102A600001680C3151E8002F22F0100241E80023E8
:102A7000002BF5D101680A68D20602D50A684968B8
:102A80000091818DFFF71DFAE7E7000070B504465D
:102A900000680169E26821F4405111430161216934
:102AA000A0680843616908432168CA6841F20C6361
:102AB0009A430243CA6020684169A26921F44071C7
:102AC000114341611E492068884202D1FEF7B4FEDD
:102AD00001E0FEF7A1FE00EBC00101EB001260680F
:102AE00064218000B2FBF0F3B3FBF1F36FF0180642
:102AF0007343B2FBF0F5B2FBF0F605EB830532232E
:102B000003EB0515B5FBF1F5B6FBF1F605F0F005A5
:102B100005EB0615B2FBF0F6B2FBF0F0B0FBF1F0FE
:102B20006FF01802504306EB800003EB0010B0FB7F
:102B3000F1F0216800F00F002844886070BD0000AB
:102B40000038014038B58162044682850020134672
:102B50006064222284F84220E56B1B4AAA62E56B7E
:102B60001A4AEA62E56B1A4A2A63E26B50630A4624
:102B70002168E06B091DFEF7C3FB2068016840680F
:102B80000090206948B120680C3050E8001F41F4E3
:102B9000807140E80012002AF5D12068143050E816
:102BA000001F41F0010140E80012002AF5D1206821
:102BB000143050E8001F41F0400140E80012002AA4
:102BC000F5D1002038BD00006F280008F528000866
:102BD000252800082DE9F843984617460D46044677
:102BE000089E24E0701C22D0FEF7E2FCA0EB080057
:102BF000B0421AD8CEB12068C168490717D5802DD8
:102C000015D0402D13D00168C94309070FD40168BE
:102C10000025406800902046FFF7A1FE0820606470
:102C200084F840500120BDE8F8830320FBE72068CA
:102C3000006835EA000004D00020B842D2D000205D
:102C4000F1E70120F9E70000104810B500680168BD
:102C5000C943C90619D46FF0100101600C4800681F
:102C60000C4908600948FFF72DF90B4800684068D7
:102C70004042C1B2094801F0B5FCBDE810404FF434
:102C8000807206490148FFF78BBB10BD2804002065
:102C90006C000020740000203C05002098000020FB
:102CA00010B50348FFF748F9BDE81040FFF7CCBF67
:102CB00028040020FEE700000FB4054B10B503A95F
:102CC000044A029800F060F910BC5DF814FB0000A3
:102CD000013A0008880000200FB4084B10B504A981
:102CE00002AA039800F050F9044602A9002000F05F
:102CF000E2FC204610BC5DF814FB0000B73600086B
:102D00000907090E002804DB00F1E02080F8001418
:102D1000704700F00F0000F1E02080F8141D7047AC
:102D2000004870479400002030B528B1144C031FB0
:102D3000002021680A4605E0084630BD9A4203D8C3
:102D400010465268002AF9D1002800D041680BD003
:102D50000468A3EB0005A54204D11B681C4403468C
:102D6000046002E0436000E023603AB11C68D51AB9
:102D7000A54203D115682C441C6052685A6030BDCE
:102D80008C0000202DE9F04782460F4C10480D4E74
:102D90000E4F001B4FF0000820F007054FF001090F
:102DA00000221146504600F07BFE002802D1306818
:102DB00010B10020BDE8F0873C60C4E90058C6F8B7
:102DC0000090EDE790000020840500208C0000209A
:102DD0008015002002E008C8121F08C1002AFAD19D
:102DE00070477047002001E001C1121F002AFBD18B
:102DF000704700002DE9FF5F82B00021DDE904305B
:102E0000020DDDF840B0034318D044F61050A2F292
:102E1000FF3242431514119801281FD0A5EB0B0077
:102E2000401C5FEA000A4FF000064E4FDFF8389171
:102E3000B046504615D5CAF1000413E0119801249C
:102E40004AA3012801D16FEA0B010298119AC0E947
:102E50000031C0E9024206B0BDE8F09FCBF10000AE
:102E6000DFE704460021404A491842EB0450CDE90F
:102E7000001012E0E00707D032463B464046494684
:102E8000FDF71BFE8046894632463B4610461946F2
:102E9000FDF713FE06460F466410002CEAD1DDE96B
:102EA0000401DDE90023BAF1000F06DAFDF705FEA3
:102EB00042464B46FDF701FE05E0FDF770FE424637
:102EC0004B46FDF76CFE04460E460022284BFDF7EC
:102ED00071FC03D84FF0FF30014607E00022254B7C
:102EE00020463146FDF787FBFDF7D4FE102409E0AC
:102EF000002C0ADB0A220023FDF78AFC039B3032F8
:102F00001A55641E50EA0102F2D1641C039AC4F1FE
:102F100011031444119A012A03D0012208430DD150
:102F20000AE0084304D000204FF0110B119072E723
:102F3000A3EB0B056D1E0DE05B4504DD4FF00002B9
:102F400005F1010504E003DA4FF00002A5F10105E7
:102F5000002AECD002981199C0E90231C0E900457D
:102F600079E70000000014400000F03F300000004E
:102F70000000F0430000E03F30380A2801D2012071
:102F800070470020704700002DE9FF4F95B09B4629
:102F90008946064600250FE2252877D100242746DA
:102FA000F84A0121059400E0044316F8013F203B54
:102FB00001FA03F01042F7D130782A2811D06FF0CF
:102FC0002F033078A0F13002092A16D8059A44F070
:102FD000020402EB820203EB42021044761C0590CD
:102FE000EFE759F8042B0592002A03DA504244F423
:102FF0000054059044F00204761C30782E2816D137
:1030000016F8010F44F004042A280DD06FF02F02A7
:103010003078A0F13003092B09D807EB870302EBC6
:103020004303C718761CF3E759F8047B761C307805
:103030006C280FD006DC4C2817D068280DD06A28E1
:1030400014D104E0742810D07A280FD10DE044F494
:1030500000140AE044F4801401E044F4401472784F
:10306000824202D104F58014761C761C30786628E2
:103070000BD013DC582877D009DC002875D0452800
:10308000F6D04628F4D047281AD19DE118E06328ED
:1030900035D0642879D0652812D195E1702873D095
:1030A00008DC6728F1D069286FD06E280DD06F2812
:1030B00006D1B5E073282CD0752875D0782874D047
:1030C0005A46179990476D1C75E1C4F302500228C7
:1030D00009D003280DD0D9F8001004280DD00D60B8
:1030E00009F1040967E1D9F80010EA17C1E90052B3
:1030F000F6E7D9F800100D80F2E70D70F0E719F847
:10310000041B8DF8001000208DF80100EA46012014
:1031100003E059F804AB4FF0FF3061074FF00001B6
:1031200002D40DE008F101018846B9420FDA80456A
:10313000F8DB1AF808100029F4D108E008F10101C1
:1031400088468142FADB1AF808100029F6D1059862
:103150005B46A0EB080721463846179A00F094FA20
:10316000284400EB080507E04DE029E10DE01AF8DE
:10317000010B5A4617999047B8F10108F7D25B4600
:1031800021463846179A13E142E00A220092C4F31E
:1031900002524FF0000A022A08D059F804CB032A41
:1031A0004FEAEC710AD00DE029E02AE009F10701AD
:1031B00021F00702F2E802C1914609E00FFA8CFC07
:1031C0004FEAEC71042A03D14FFA8CFC4FEAEC7100
:1031D000002907DA0A460021DCF1000C61EB02014C
:1031E0002D2202E0220504D52B228DF80420012295
:1031F00003E0E20701D02022F7E7904659E00A21D8
:1032000002E010220DE010214FF0000A00910BE0C7
:1032100010224FF0000A44F004040827009203E053
:1032200008224FF0000A0092C4F30252022A05D08D
:1032300059F804CB0021032A08D009E009F107015D
:1032400021F00702F2E802C1914605E01FFA8CFC6A
:10325000042A01D10CF0FF0C4FF00008220728D5FA
:10326000702806D0009B83F0100353EA0A0305D0B0
:103270000EE040228DF80420012208E05CEA010201
:1032800006D030228DF804208DF8050002229046E9
:10329000009B83F0080353EA0A030AD15CEA0102A7
:1032A00001D1620705D530228DF804204FF00108C6
:1032B0007F1E582804D034A003900EA802900DE081
:1032C00036A0F9E753466046009AFDF7A1FA844616
:1032D0000398825C0298401E029002705CEA010032
:1032E000F0D1029806A9081A00F1200A600702D559
:1032F00024F4803400E00127574502DDA7EB0A00E3
:1033000000E0002000EB0A01009005984144401ABB
:103310000590E00306D45B462146179A059800F015
:10332000B3F90544002706E001A85A46C05D179985
:1033300090476D1C7F1C4745F6DBE0030CD55B46D0
:103340002146179A059800F09FF9054404E03020C3
:103350005A46179990476D1C0099481E0090002905
:10336000F5DC08E0029802995A460078491C02915F
:10337000179990476D1CBAF10001AAF1010AF1DC1E
:1033800065E1000009280100303132333435363729
:1033900038396162636465660000000030313233A1
:1033A0003435363738394142434445460000000041
:1033B00000F058F90544761C307800287FF4ECAD15
:1033C00019B02846BDE8F08F620700D4062709F13E
:1033D000070222F0070CFCE80223E14603F0004854
:1033E0005FEA080C02D00FF2702C0DE05FEA045C7B
:1033F00002D50FF2682C07E05FEAC47C02D00FF21E
:10340000602C01E0AFF2700C4FF0FF3823F0004366
:10341000CDF850C065280CD006DC452809D04628D8
:103420001DD047283DD13DE0662818D067287ED1C1
:1034300038E00021112F01DB112000E0781CCDE9DC
:10344000000106A90EA8FFF7D5FCDDE90F010E9AD1
:1034500003910021009207F1010A04914DE04FF021
:1034600000400097CDE9011006A90EA8FFF7C2FCA5
:10347000DDE90F0203920E9B11990022DDF80CA0EA
:103480000093049211B9791C00EB010AB7EB0A0012
:1034900004D4C0F1FF3007F1010A0490AAEB070041
:1034A000019044E0012F00DA01270021112F01DDF6
:1034B000112000E03846CDE9000106A90EA8FFF76B
:1034C00099FCDDE90F010E9A03910021049100920D
:1034D000BA4621070CD40399514500DA8A46BAF15D
:1034E000010F05DD009AAAF10101515C302908D0D5
:1034F000B84202DA10F1040F06DA0121CDE9011019
:1035000015E0AAF10101E9E7002805DC049901446E
:103510000491AAEB000102E0411C514500DD8A46FE
:103520000499401A401C01904FF00040029020077F
:1035300004D40198504501DBCDF8048000208DF8BB
:103540004F0002980DF14F07B0F1004F25D02B200E
:103550000E9002984FF0020800280CDA40420290C8
:103560002D200E9007E00A210298FDF73BF930313B
:10357000029007F8011DB8F10001A8F10108F2DC82
:1035800002980028EFD1791E0E980870307800F06C
:10359000200040F0450007F8020D12A8C01B00F102
:1035A00007081498007800B1012000EB0A01019887
:1035B00001EBE07105984144401A401E0590E0037C
:1035C00006D45B462146179A059800F05DF805443D
:1035D0001498007818B15A46179990476D1CE0036B
:1035E00024D55B462146179A059800F04DF805440E
:1035F0001CE00498002807DBDDE90301884203DDB5
:103600000098405C179901E0179930205A4690477E
:10361000049805F10105401C04900198401E01909A
:1036200004D12E205A46179990476D1CBAF100011B
:10363000AAF1010ADDDC05E017F8010B5A461799DB
:1036400090476D1CB8F10001A8F10108F4DC5B465D
:103650002146179A0598ABE62D0000002B000000CC
:10366000200000002DE9F041044600251E461746C3
:10367000880404D405E039462020B0476D1C641E40
:10368000F9D52846BDE8F0812DE9F0410446002532
:103690001E469046C80301D5302700E02027880445
:1036A00004D505E041463846B0476D1C641EF9D587
:1036B0002846BDE8F0810A68531C0B601070704703
:1036C00010B530B1036823B1D0E90121914201D294
:1036D00004E0002010BD491C816020B1914202D25B
:1036E0005C5C202CF7D99142F4D1491E816010BD59
:1036F0002DE9F04104460027104E1BE0A089256803
:10370000C0050BD4A06820B1FFF7F2FFA089C00567
:1037100004D4206910B1716888472761A0898005A9
:1037200004D4206A10B17168884727627168204606
:1037300088472C46002CE1D1BDE8F0810C00002028
:103740000248D0E90010084470470000040000203F
:10375000002200F067B9002803D0007B082801D0C0
:103760000020704701207047002803D0007B1028FC
:1037700001D0002070470120704710B50168282053
:103780008847040002D02821FCF71DFD204610BD0B
:103790000022114600F06EB82DE9F04788B00F46C0
:1037A00004469A4616461C216846FCF70CFD2F4835
:1037B0000025002C0560456055D08146E7B3CDE972
:1037C00000470295D9E90212D9F810000491CDE919
:1037D000052009F10800FFF7D0FF5FEA00082BD0B1
:1037E00000986F4608B1029808B100270BE00198D5
:1037F000042808D903221EA10098FCF720FD10B967
:103800000298C01C02903846FFF75AFF0146404616
:1038100000F06AFE68B1BAF1000F13D06846FFF7F6
:103820004FFFDDE90101814203D202990098405C1B
:1038300040B14046FFF75CFFDDE9011088420AD243
:1038400005460BE01EB102990098084430604046DE
:1038500008B0BDE8F087081E00D0451E0EB1601903
:103860003060C9E900450020F2E7000004000020B4
:10387000EFBBBF0070B515460E46040009D0FCF73B
:10388000C9FC411C2B4632462046BDE87040FFF77C
:1038900083BF002070BD000010B5164B042821D056
:1038A000052825D2DFE800F003050D171E000122D0
:1038B00012E0002240211C461846FDF774FE01224A
:1038C00006E0012240211C461846FDF76CFE00224E
:1038D0002021204602E0002260211846BDE8104069
:1038E000FDF761BEBDE8104060211846FDF753BEEC
:1038F00010BD00000008014010B5064C206861684A
:10390000401A4EF66021884203D301F085F8206802
:10391000606010BD6C00002010B51DA0FFF7CCF951
:1039200020A001F013F941F288342046FDF720FD74
:103930001EA001F00BF92046FDF71AFD1FA001F0B3
:1039400005F92046FDF714FD234801F0FFF8204655
:10395000FDF70EFD214801F0F9F82046FDF708FDBE
:103960001F4801F0F3F82046FDF702FD1D4801F065
:10397000EDF82046FDF7FCFC1B4801F0E7F84FF49A
:103980007A70FDF7F5FCBDE8104018A0FFF794B978
:1039900077696669B3F5CABCBBAFBFAACABC0D0ADA
:1039A0000000000041540D0A0000000041542B4368
:1039B000574D4F44453D330D0A00000041542B4301
:1039C000574A41503D2231222C2231323334353690
:1039D0003738220D0A000000A05100081C520008D0
:1039E00014530008CC5200088452000877696669B5
:1039F000B3F5CABCBBAFCDEAB3C90D0A00000000E5
:103A000013B56423012269460248FEF7D9FC0098E9
:103A10001CBD000028040020014800687047000019
:103A2000180000202DE9F0418846A8B3B8F1000F36
:103A300033D084680AB90AE024686CB3216A59B3A8
:103A40004046FCF7EEFB0028F6D120E024681CB3CA
:103A5000266A5FEA0805F9D0002EF7D0B54218D0E3
:103A600002E098B16D1C761C2878FCF78DFB0746A8
:103A70003078FCF789FB87422878F2D0FCF784FB8A
:103A800005463078FCF780FB8542DFD124B1206AFF
:103A900010B12046BDE8F081FFE70020FAE7000002
:103AA0002DE9F0410B3020F00706104D19E0206899
:103AB000B04215D3B0420AD9871B201DD4F8048028
:103AC000FCF768FBA019C0E90078286004E0606892
:103AD0002860201DFCF75EFB201D2660BDE8F081FC
:103AE000251D2C68002CE2D10020F7E78C00002077
:103AF0000248002181700170417070471C00002055
:103B00000348A0F12001897850F821000047000007
:103B10003C0000200020FFF7BFBE0000064932280D
:103B200001D2322005E04FF47A72904201D90A6046
:103B3000704708607047000018000020FDF746FD40
:103B4000FEF7A8FDFEF702FDFEF7CAFCFEF780FDBA
:103B5000FEF73EFDFEF760FDFFF7DCFFFFF7C8FF55
:103B60001A48FEF7CFF81A480068C16841F0100102
:103B7000C1604FF480773A4616491548FEF710FCAD
:103B800015480068C16841F01001C1603A46134908
:103B90001148FEF705FCFFF7BFFE114C114D41F235
:103BA000883600BFFFF7ACFFFFF7A6FE2068296844
:103BB000401AB042F6D30648FEF784F93A46054962
:103BC0000348FEF7EDFB20682860EBE79803002030
:103BD0002804002098000020E00300209801002025
:103BE0006C000020740000202DE9F04107460025FC
:103BF000C8680C462E46B0F57A7F5BD2401CE06068
:103C00002168A068095C5B2954D1401CA060204653
:103C1000FFF756FD4CB1D4E90110884203D2226867
:103C2000125C5D2A33D0884203D3A068401EA06096
:103C300040E0401E04F11008A0604046FFF79DFDE3
:103C400098B30DB3306046600646A068401CA06083
:103C50002046FFF735FD2146304600F045FC30B3E5
:103C60002046FFF72DFD14B3D4E90110884203D29A
:103C70002168095C2C29E0D06268904217D2216843
:103C8000085C5D2813D102E005462E46DDE7E068BA
:103C9000401EE06005B16E602020C7E90250A068B8
:103CA000401CA0600120BDE8F081FFE715B1284667
:103CB000FFF71EFD0020F6E7034610B50020024680
:103CC000995CA1F13004092C01D830380AE0A1F147
:103CD0004104052C01D8373804E0A1F16104052C1A
:103CE00008D857380844032A00D20001521C042A7D
:103CF000E6D310BD002010BD2DE9F041FFF748FDCF
:103D0000050014D08BA1FFF723FD04007AD0FFF744
:103D10002BFD0028FAD089A12069FCF782FA70B146
:103D20008DA12069FCF77DFA00286CD0FDE0FFF73B
:103D300007FDBDE8F04101468EA0FEF7BDBF94A18E
:103D40002846FFF705FD0600F0D093A1FFF700FD20
:103D500004000DD0FFF7FFFC50B16069012853D07B
:103D60000020FFF799FD8DA0FEF7A6FF00F0E8FE0A
:103D700093A13046FFF7ECFC934F040014D0FFF7FB
:103D8000EAFC88B16069012843D020213846FDF75C
:103D9000FDFB002842D00020FFF77EFD8BA000BF76
:103DA000FEF78AFF00F0CCFE90A13046FFF7D0FC72
:103DB000040015D0FFF7CFFC90B1606901282FD027
:103DC00040213846FDF7E2FB00282ED05FF00000CE
:103DD000FFF762FD7DA000BFFEF76EFF00F0B0FEB2
:103DE00084A13046FFF7B4FC04009FD0FFF7B3FC7A
:103DF00000289BD06069FFF791FEFFF70DFE01469A
:103E00007EA08DE017E012E00320FFF745FD87A0BC
:103E1000AAE70120FFF740FD8DA0C1E70220BBE724
:103E20000220FFF739FD92A0D6E70120D0E798A045
:103E3000FEF742FF77E0A0A12846FFF789FC0400C7
:103E400016D0FFF791FC98B19CA12069FCF7E9F925
:103E5000B0B19BA12069FCF7E4F9002850D09AA1E9
:103E60002069FCF7DEF900285DD099A0216957E0B0
:103E70002846FFF73DFCBDE8F0419CA0FEF71CBFC3
:103E8000A4A12846FFF764FC0646A3A12846FFF735
:103E90005FFC0446002E48D03046FFF75CFC00284B
:103EA00043D0002C41D02046FFF75EFC00283CD0D8
:103EB0009AA12069FCF7B5F928B199A12069FCF70E
:103EC000B0F9C0B131E0706901280AD002280DD0E4
:103ED0000320FFF7E1FC93A0FEF7EEFE00F030FEBA
:103EE00023E00120FFF7D8FC92A0F5E70220FFF7BE
:103EF000D3FC95A0F0E70020FFF7CEFC97A0EBE7FE
:103F00009BA12846FFF724FC04000ED0FFF723FCFA
:103F100058B16069FFF702FEFFF77EFD014697A0EA
:103F2000FEF7CAFE01E000F077FD2846BDE8F0414B
:103F3000FFF7DEBB6D6574686F6400007468696EBE
:103F4000672E736572766963652E70726F70657225
:103F500074792E73657400007468696E672E7365DA
:103F600072766963652E70726F70657274792E67F0
:103F7000657400004572726F723A20496E76616C0A
:103F80006964204A534F4E202D2025730D0A0000EE
:103F9000706172616D7300004C454400416C697939
:103FA000756E20436F6E74726F6C3A205475726E2A
:103FB000204F464620616C6C204C4544730D0A002E
:103FC0004C4544310000000000080140416C697913
:103FD000756E20436F6E74726F6C3A205475726EFA
:103FE000204F4646204C45440D0A00004C454432C3
:103FF00000000000426C696E6B000000436C6F753E
:104000006420436F6E74726F6C3A20426C696E6B01
:1040100020696E74657276616C2073657420746FAC
:1040200020256C75206D730D0A000000416C6979C4
:10403000756E20436F6E74726F6C3A205475726E99
:10404000204F4E20616C6C204C4544730D0A0000DB
:10405000416C6979756E20436F6E74726F6C3A2093
:104060005475726E204F4E204C4544310D0A0000AD
:10407000416C6979756E20436F6E74726F6C3A2073
:104080005475726E204F4E204C4544320D0A00008C
:10409000CAD5B5BDD6F7B6AFBBF1C8A1C3FCC1EE5A
:1040A000A3ACD7BCB1B8C9CFB1A8C9E8B1B8D7B42F
:1040B000CCAC0D0A00000000636D64006C65640008
:1040C000626C696E6B0000007265706F7274000044
:1040D000D5D2B2BBB5BDB6D4D3A6B5C44A534F4EA4
:1040E000B8F1CABD3A2025730D0A00004572726FFF
:1040F000723A204D697373696E67206F7220696E22
:1041000076616C69642027636D6427206669656C3D
:10411000640D0A00696400006F7000006F6E00009B
:104120006F6666004A534F4E203A204C4544204F5C
:104130004E0D0A004A534F4E203A204C4544312040
:104140004F4E0D0A000000004A534F4E203A204CBB
:10415000454432204F4E0D0A000000004A534F4E96
:10416000203A204C4544204F46460D0A00000000EE
:10417000696E74657276616C000000004A534F4EA0
:104180003A424C494E4B20696E74657276616C20E0
:1041900073657420746F20256C750D0A0000000093
:1041A0002DE9F84F4FF0000980460C004FF02E0A21
:1041B00048464D464F46CDF800903ED02668CEB3D7
:1041C000D4E9012122E07318C35C342B1BD00ADC34
:1041D000A3F12B03092B1CD2DFE803F0151B152DCF
:1041E0001B1515151500382B0DD006DC352B0AD004
:1041F000362B08D0372B0CD105E0392B03D0452BBB
:1042000001D0652B05D16D1C401C14B10B189342D5
:10421000D9D32169681C884706000ED0A1682068A0
:104220002A4601443046FBF7B5FF06F805907FB1FA
:1042300000200BE001E00127E5E70020BDE8F88F52
:10424000315C2E2901D106F800A0401CA842F7D30A
:104250006946304600F0D4FE054600980F46864277
:1042600003D1616930468847E7E7C8E90657144A31
:10427000144B28463946FCF79DFA02D86FF00041EE
:1042800008E00022104B28463946FCF77BFA04D898
:104290004FF00041C8F8141005E028463946FCF7F5
:1042A00051FAC8F814000821C8F80C100099A06849
:1042B000891B0844A0606169304688470120BDE73A
:1042C0000000C0FFFFFFDF410000E0C12DE9F04129
:1042D00007460026C8680C463546B0F57A7F7BD283
:1042E000401CE060002C77D0D4E90110884273D2E2
:1042F0002168095C7B296FD1401CA0602046FFF734
:10430000DFF9D4E90110884203D22268125C7D2AC9
:104310004FD08842A0F10100A0605DD204F11008E6
:104320004046FFF72AFAE8B30EB328604560054619
:10433000CCB3D4E90110401C88424AD2A060204688
:10434000FFF7BEF92146284600F048F858B320464A
:10435000FFF7B6F92869286200202861D4E9011026
:10436000884236D22168095C3A2932D102E00646F9
:104370003546DDE7401CA0602046FFF7A1F9214645
:10438000284600F0B1F870B12046FFF799F9D4E95A
:104390000110884203D22168095C2C29C0D06268D0
:1043A000904201E014E014E013D22168085C7D28FB
:1043B0000FD1E068401EE06006B175604020C7E99B
:1043C0000260A068401CA0600120BDE8F08103E00D
:1043D00016B13046FFF78CF90020F6E72DE9F843D7
:1043E00080468B6808684FF00009C418CDF800902B
:1043F00008680E46651CC15C641C22296ED100222F
:10440000716808E0BCF15C0F04D17F1C8F4265D25B
:10441000521C641C641C271A8F4204D294F800C0FA
:10442000BCF1220FEED1271A8F4257D221782229D0
:1044300054D11844201A801A3169401C884707005B
:104440004CD0009737E029785C2905D000986D1C86
:1044500000F8011B00902EE00220611B012939DBCE
:104460006A78662A14D008DC222A12D02F2A10D0AB
:104470005C2A0ED0622A2DD108E06E2A0ED0722A54
:104480000ED0742A0ED0752A24D10DE0082200E047
:104490000C22009901F8012B00910BE00A22F8E7A9
:1044A0000D22F6E70922F4E76A462146284600F085
:1044B000B5FD78B10544A542C5D3009981F80090B7
:1044C0001021C8E903173068201A401CB060012091
:1044D000BDE8F88317B171693846884715B130686F
:1044E000281AB0600020F3E770B50C0005465ED0D6
:1044F000206800285BD0A16863680A1D9A4205D82D
:104500000844042231A1FBF79AFE78B3A0686268E0
:10451000411D0126914206D82168052208442DA19B
:10452000FBF78DFE28B3A0686268011D914206D892
:1045300021680422084429A1FBF781FEE8B1D4E9EF
:104540000101814203D22268525C222A1DD081429D
:1045500021D22268525C2D2A02D0303A092A1AD878
:1045600021462846BDE87040FFF71ABE0420E860E7
:1045700006E0EE60A068401D04E002206E61E86085
:10458000A068001DA060012070BD21462846BDE83E
:104590007040FFF723BF814203D22268525C5B2A3E
:1045A00007D0814203D22068405C7B2807D00020DE
:1045B00070BD21462846BDE87040FFF715BB214677
:1045C0002846BDE87040FFF781BE00006E756C6C38
:1045D0000000000066616C73650000007472756510
:1045E0000000000070B50E460A46C0B0014668469D
:1045F000FBF7D0FD00256C460DF806502046FBF772
:1046000009FE2044401E01E000F80159A04208D3F1
:1046100001782029F8D00D29F6D00A29F4D00929EB
:10462000F2D09DF800007B281AD01DA16846FBF748
:10463000F8FDC8B11CA16846FBF7F3FDA8B105223F
:104640001BA16846FBF7FBFDA0B11BA16846FBF769
:10465000E8FDC8B169461BA0FEF72EFB40B070BD57
:104660006846FFF749FBF9E70320FFF715F900F06B
:1046700067FAF3E7601DFBF7B1FFFFF74FFAFFF7AB
:10468000CBF9014615A0E7E700F076F90446FFF7FD
:10469000C3F90146224619A0FEF70EFBDEE7000033
:1046A0004C4544204F4E00004C4544204F464600A8
:1046B000424C494E4B00000047455420434F4E4664
:1046C00049470000556E6B6E6F776E20636F6D6D9E
:1046D000616E643A2025730D0A000000424C494E79
:1046E0004B20696E74657276616C207365742074FA
:1046F0006F20256C75206D730D0A00004375727272
:10470000656E7420436F6E6669673A204C45445F5E
:1047100054494D203D20256C75206D732C4C45442B
:104720005F5374617465203D2025640D0A0000000C
:1047300030B50C460A46C1B001466846FBF72AFD73
:1047400000250DF80450694631A0FEF7B5FA38A1EE
:104750006846FBF743FD20B939A16846FBF73EFDEB
:1047600008B13AA046E03DA16846FBF737FD08B125
:104770003EA03FE041A16846FBF730FD08B140A0F4
:1047800038E044A16846FBF729FD68B133A16846CB
:10479000FBF724FD20B941A16846FBF71FFD08B1D6
:1047A00041A027E048A025E04CA16846FBF716FD94
:1047B00020B94DA16846FBF711FD70B17B21684619
:1047C000FBF71EFD04001CD07D21FBF747FD0028F0
:1047D00017D04570214648A011E04DA16846FBF76F
:1047E000FDFC08B14CA005E050A16846FBF7F6FCC3
:1047F00018B151A0FEF760FA03E0694652A0FEF737
:104800005BFA4FF480715B48FBF7DDFC41B030BDD3
:104810004553503832363620CFECD3A6CAFDBEDD24
:10482000BDD3CAD5B5BD3A2025730D0A00000000DE
:104830005749464920434F4E4E4543544544000096
:104840005749464920474F54204950005749464947
:10485000C1ACBDD3B3C9B9A60D0A00002B4D51544C
:1048600054434F4E4E454354454400004D5154541B
:10487000C1ACBDD3B3C9B9A60D0A00004F4B0000AF
:104880004154D6B8C1EEBDBBBBA5B3C9B9A60D0A8C
:10489000000000004552524F520000002B4D515471
:1048A00054535542000000004154D6B8C1EEB7B58C
:1048B000BBD84552524F522CB5ABC1ACBDD3D2D1AF
:1048C000B3C9B9A60D0A00004154D6B8C1EEBDBBAC
:1048D000BBA5CAA7B0DC0D0A000000002B4D515447
:1048E00054524356000000002B4D5154545355422E
:1048F00052454356000000004D51545420506179F8
:104900006C6F6164203A202573200D0A00000000BE
:1049100053454E44204F4B004D515454D0C5CFA267
:10492000B7A2CBCDB3C9B9A60D0A00002B4D515487
:10493000545055423A0000004D515454B7A2B2BCF5
:10494000CFECD3A60D0A0000C3BBD3D0B6D4D3A6F8
:10495000B5C4CAFDBEDDB4A6C0EDA3ACBDD3CAD5F7
:10496000B5BDD4ADCABCCAFDBEDD3A2025730D0A63
:10497000000000009802002070B50B4D4021284631
:10498000FCF704FE044620212846FCF7FFFD54EA0C
:10499000000103D024B128B1002070BD032070BDF8
:1049A000012070BD022070BD000801402DE9F047D4
:1049B00004008A4616D054F8047CD4F800903E1FB8
:1049C000564500D956462046FEF7AEF905468846BC
:1049D000324621465046FFF763F840B1C0F80090D8
:1049E000BDE8F087BDE8F0470846FEF7CBB944E9DB
:1049F000017955B129686A18211F8A4202D9611BC1
:104A0000091F2960C5F80480EAE7024AC2F800805D
:104A1000E6E700008C00002070B51A4D40212846C2
:104A2000FCF7B4FD58B1002420212846FCF7AEFD68
:104A300038B1002554EA050005D0012604E0012420
:104A4000F2E70125F6E700260F480168491C0160DE
:104A50000EA0FEF731F9314613A000F03DF82146D3
:104A600012A000F039F8294612A000F035F8FEF740
:104A7000D3FF014611A000F02FF8BDE8704011A04F
:104A8000FEF71AB90008014068000020BFAACABC9E
:104A9000D7BCB1B8C9CFB1A8C9E8B1B8D7B4CCAC0C
:104AA0002E2E2E0D0A0000004C4544004C4544318A
:104AB000000000004C45443200000000426C696E6A
:104AC0006B000000CBF9D3D0B2CECAFDC9CFB1A8DC
:104AD000CDEAB3C90D0A000030B5ADF5017D0C4635
:104AE00005460B4602460B496846FEF7F5F8224696
:104AF000294609A0FEF7E0F869460CA0FEF7DCF8AD
:104B0000684600F023F84FF4FA60FCF731FC0DF52D
:104B1000017D30BD5C530008C9CFB1A8B2CECAFD3B
:104B2000202573203D2025640D0A0000B7A2CBCDBF
:104B3000D6B8C1EE3A2D2D2D2D3E20257300000054
:104B400001490020887070471C00002010B5044601
:104B5000014608A0FEF7B0F82046FBF75BFB82B2E7
:104B600021460948FDF77CFCBDE810400520FCF714
:104B7000FFBB0000B7A2CBCDD6B8C1EE3A2D2D2D8C
:104B80002D3E2025730D0A00E003002070B50F486C
:104B900000680F4CE0602169401AC82815D3042032
:104BA000FEF77AFEE0682061E078401CC0B2E07059
:104BB00006280AD30025E5702846FEF76DFEA5708D
:104BC000BDE8704003A0FEF777B870BD6C00002010
:104BD0001C000020C9C1CBB8BDE1CAF80A00000022
:104BE00070B5184D2868184C6061FEF715FFD4E9C0
:104BF0000512891A884204D80420FEF74DFE606928
:104C0000A061607818B92868E061012060702868A8
:104C1000E169401AB0F5FA6F0FD30C4E0821304607
:104C2000FCF7B4FC50B104213046FCF7AFFC00287F
:104C300003D1286860600920A07070BD286860609A
:104C40000720F9E76C0000201C0000200010014044
:104C500070B5104D08212846FCF798FC0E4C20B981
:104C600004212846FCF792FC10B10020A07070BD12
:104C70000A4800686168401A40F6B8318842F6D3A5
:104C80000020FEF709FE0620A070BDE8704004A0D9
:104C9000FEF712B8001001401C0000206C0000203C
:104CA0006B657931BACD6B657932B0B4CFC23373ED
:104CB0002CBDF8C8EBC5E4D6C3C4A3CABD0A000026
:104CC00070B514480168144C0025A268891AB1F522
:104CD000FA7F17D30068A060FFF74EFE03280FD0BD
:104CE000FFF74AFE0321401CB0FBF1F201FB12006A
:104CF000FEF7D2FDA57009A0BDE87040FDF7DCBF4E
:104D00000020F5E725700020FEF7C6FD0420A07006
:104D100006A0F1E76C0000201C000020B3ACCAB173
:104D2000A3ACC8A1CFFBCBABBBF70A00BDF8C8EB67
:104D3000C9C1CBB8D7B4CCAC0A00000010B508216B
:104D40000C48FCF723FC012813D10B4800680B4CDE
:104D50006168401A14280AD3FEF75EFE3230FEF76F
:104D6000DDFEFEF759FE014605A0FDF7A5FF062072
:104D7000A07010BD001001406C0000201C0000203D
:104D80004C45445F54494D202B203530203D202593
:104D90006C750A0070B504211048FCF7F7FB0A2473
:104DA0000F4A104940F6B833012805D010684A6808
:104DB000801A984210D270BD156848682D1A142DBB
:104DC0000AD31268101A984206D208208870BDE8EB
:104DD000704005A0FDF770BF8C7070BD00100140E1
:104DE0006C0000201C0000204B455932B6CCB0B4FA
:104DF0002CBDF8C8EBBCF5C9D9C4A3CABD0A0000D4
:104E000010B504210F48FCF7C1FB012819D10E4849
:104E100002680E4C6168521A142A10D30068401AB6
:104E200040F6B83188420AD2FEF7F6FD3238FEF776
:104E300075FEFEF7F1FD014605A0FDF73DFF0620DA
:104E4000A07010BD001001406C0000201C0000206C
:104E50004C45445F54494D202D203530203D2025C0
:104E60006C750A0010B50020FEF716FD08210648F3
:104E7000FCF78CFB012805D104A0FDF71DFF0649B6
:104E80000020887010BD000000100140B3A4B0B431
:104E9000BDE1CAF80A0000001C00002010B5042182
:104EA0000748FCF773FB012809D10020FEF7F4FC4A
:104EB00004A0FDF701FF0B4800214170817010BD77
:104EC00000100140B1A3B4E6B3C9B9A6A3ACB7B50D
:104ED000BBD8B5C8B4FDB0B4BCFCD7B4CCACA1A3AE
:104EE000000000001C00002070B508212048FCF7DD
:104EF0004DFB204D204C4FF4FA61012807D0286863
:104F00006268801A884201D30220A07070BD2A68AE
:104F10006068121A142AF9D32A68101A8842F5D246
:104F20002078401CC1B2217014A0FDF7C5FE207886
:104F30000326022802D3A67013A012E02868A060FE
:104F4000FFF71AFD032810D0FFF716FD401CB0FB39
:104F5000F6F106FB110000BFFEF79EFC0020A070DA
:104F60000DA0BDE87040FDF7A7BE0020F4E70000EB
:104F7000001001406C0000201C000020636E7420B3
:104F80003D2025640A000000BDF8C8EBCBABBBF7A1
:104F9000C4A3CABD0A000000C7D0BBBB4C45442C0B
:104FA000B6CCB0B4BDE1CAF80A00000070B50F4E2F
:104FB00008213046FCF7EAFA0D4D0E4C20B90421C9
:104FC0003046FCF7E3FA50B108213046FCF7DEFA30
:104FD000002803D1286860600120A07070BD06A081
:104FE000FDF76AFE286860600520F6E700100140C2
:104FF0006C0000201C000020B0B4BCFC310A000092
:1050000000B583B00A460021CDE90011014668468B
:10501000FBF78BFCDDE9000103B000BD2DE9F04793
:1050200005460027481B1646894606285DDBA81C56
:10503000FEF742FE0446A0F55C414FF480608142D9
:1050400053D3A4F55841824651451AD2A81DA9EB65
:1050500000014FF00C08062947DB01785C2944D198
:105060004178752941D1801CFEF726FEA0F55C41F0
:1050700051453AD2C4F3090161F39F2000F5803015
:1050800002E04FF006082046802801D2012110E0FE
:10509000B0F5006F02D20221C0270AE0B0F5803FD0
:1050A00002D20321E02704E0B0F5881F1DD20421BD
:1050B000F0274A1E08E000BF00F0BF03346843F049
:1050C00080038009A354521E12F0FF02F4D101297B
:1050D00001D9384301E000F07F0032681070306879
:1050E000084430604046BDE8F0870020FBE701023D
:1050F00002030405060708090A0B0C0D0E0F101019
:105100000000000000000000010203040607080977
:1051100000000000010203040040404040404040C5
:10512000404041414141414040404040404040407A
:10513000404040404040404040050202020202021E
:10514000020202020202020202202020202020206D
:105150002020200202020202020290909090909081
:10516000101010101010101010101010101010103F
:1051700010101010020202020202888888888888B3
:10518000080808080808080808080808080808089F
:105190000808080802020202400000001951000835
:1051A00041542B4D515454555345524346473D307D
:1051B0002C312C224E554C4C222C2264657669638E
:1051C0006531266B32327A6D46504972766C222CEC
:1051D000223161366430363532346235646362615F
:1051E00033663931306661356435393636333935B1
:1051F0003065396436306461663264633035363721
:1052000063663966633566303266346130663865A8
:1052100038222C302C302C22220D0A0041542B4DE8
:10522000515454434C49454E5449443D302C226B13
:1052300032327A6D46504972766C2E6465766963B7
:1052400065317C7365637572656D6F64653D325C55
:105250002C7369676E6D6574686F643D686D61631A
:105260007368613235365C2C74696D657374616D79
:10527000703D313735353835343834373836307C51
:10528000220D0A0041542B4D5154545355423D3088
:105290002C222F7379732F6B32327A6D46504972FC
:1052A000766C2F646576696365312F7468696E6703
:1052B0002F736572766963652F70726F7065727493
:1052C000792F676574222C310D0A000041542B4D53
:1052D0005154545355423D302C222F7379732F6B08
:1052E00032327A6D46504972766C2F646576696306
:1052F00065312F7468696E672F73657276696365AF
:105300002F70726F70657274792F736574222C31EF
:105310000D0A000041542B4D515454434F4E4E3D05
:10532000302C22696F742D30367A303039786A33F8
:105330006963687572682E6D7174742E696F746814
:1053400075622E616C6979756E63732E636F6D2261
:105350002C313838332C310D0A00000041542B4DCC
:105360005154545055423D302C222F7379732F6B7A
:1053700032327A6D46504972766C2F646576696375
:1053800065312F7468696E672F6576656E742F704E
:10539000726F70657274792F706F7374222C227B18
:1053A0005C22706172616D735C223A7B5C222573B2
:1053B0005C223A25647D7D222C312C300D0A0000C0
:1053C000E05300080000002098000000D42D0008E1
:1053D0007854000898000020E8180000E42D000828
:1053E000000000000000000000000000852D000803
:1053F000292D0008AD4900082C0100000000000024
:10540000000000000000000000000000000000009C
:10541000000000000000000000000000AD4F000888
:10542000E94E0008654E0008C14C00088D4B00088D
:10543000514C0008E14B00083D4D0008014E0008AA
:10544000954D00089D4E000800000000000000007F
:10545000000000000000000001000000100000003B
:105460000000000000127A000000000000000000B0
:08547000000000000000000034
:0400000508000131BD
:00000001FF
